:020000040800F2
:10000000E8070020C90100081F0B0008690A000862
:100010001B0B000883020008E31D0008000000001D
:10002000000000000000000000000000650E000855
:10003000E509000800000000DD0C0008D1170008E9
:10004000E3010008E3010008E3010008E301000800
:10005000E3010008E3010008E3010008E3010008F0
:10006000E3010008E3010008E3010008E3010008E0
:10007000E3010008E3010008E3010008E3010008D0
:10008000E3010008E3010008E3010008E3010008C0
:10009000891D0008E3010008E3010008E3010008EE
:1000A000E3010008E3010008E3010008E3010008A0
:1000B000E3010008E3010008E3010008E301000890
:1000C000E3010008E3010008E3010008E301000880
:1000D000E3010008E3010008E3010008E301000870
:1000E000E3010008E3010008151B000800F002F816
:1000F00000F05AF80AA090E8000C82448344AAF168
:100100000107DA4501D100F04FF8AFF2090EBAE865
:100110000F0013F0010F18BFFB1A43F0010318473B
:10012000EC2000000C2100000A444FF0000C10F8F5
:10013000013B13F0070408BF10F8014B1D1108BF65
:1001400010F8015B641E05D010F8016B641E01F805
:10015000016BF9D113F0080F1EBF10F8014BAD1C55
:100160000C1B09D16D1E58BF01F801CBFAD505E073
:1001700014F8016B01F8016B6D1EF9D59142D6D3CD
:10018000704700000023002400250026103A28BFF5
:1001900078C1FBD8520728BF30C148BF0B607047F9
:1001A0001FB51FBD10B510BD00F031F81146FFF7A7
:1001B000F7FF01F0E3FE00F04FF803B4FFF7F2FFA2
:1001C00003BC00F057F80000094880470948004781
:1001D000FEE7FEE7FEE7FEE7FEE7FEE7FEE7FEE7F7
:1001E000FEE7FEE704480549054A064B7047000054
:1001F000D5170008ED000008E8010020E8070020FE
:10020000E8030020E80300207047704770477546F8
:1002100000F02CF8AE4605006946534620F0070072
:10022000854618B020B5FFF7DDFFBDE820404FF050
:1002300000064FF000074FF000084FF0000B21F0D0
:100240000701AC46ACE8C009ACE8C009ACE8C0099D
:10025000ACE8C0098D46704710B50446AFF3008086
:100260002046BDE81040FFF7A8BF000000487047D7
:100270008801002001491820ABBEFEE726000200DD
:10028000704700BFFEE70146CAB20B1243EA0220E4
:100290007047000008B50020009022E197480088D0
:1002A00000F00F00964908700846007800287CD1BD
:1002B00094480068944908800846008800F030009F
:1002C000924908809048008800F440508E49088088
:1002D0008C4909684BF6BF7201EA020080F40050B5
:1002E00080F0200040F4004141F08001854A116017
:1002F0008248008800F0100090BB1046006848F665
:100300000F7108401146086000F0B0FB7D49096894
:100310004BF6BF7201EA02007B49098801F4805163
:1003200009B180F480507849098801F4005109B17D
:1003300080F400507549098801F0100109B180F07E
:1003400010007249098801F0200109B180F02000F5
:1003500081B241F4004141F080016A4A116008BD58
:10036000FFE76848006880B20090BDF8000000F424
:100370000060B0B363480068C0F30E0048F68F71A8
:1003800008406049086000F033FF5E4909684BF699
:10039000BF7201EA02005C49098801F4805109B189
:1003A00080F480505849098800E056E001F400517B
:1003B00009B180F400505549098801F0100109B1D4
:1003C00080F010005149098801F0200109B180F046
:1003D000200081B241F4004141F08001494A11609E
:1003E000BDE7FFE7BDF8000000F40040002878D02A
:1003F00044480068C0F30E0048F68F710840414938
:10040000086000F02FFC3F4909684BF6BF7201EA13
:1004100002003D49098801F4805109B180F48050FF
:100420003949098801F4005109B180F40050374975
:10043000098801F0100109B180F0100033490988E2
:1004400001F0200109B180F0200081B241F40041A7
:1004500041F080012B4A116081E7294800782C493E
:1004600001EB8000D0F8000C80B20090BDF80000D5
:1004700000F40040C0B12248007801EB8000D0F8C1
:10048000000CC0F30E0048F68F7108401C49097833
:100490001F4A02EB8101C1F8000C19490978491E75
:1004A0001C4A52F821008047BDF8000000F080008F
:1004B000B8B113480078164901EB8000D0F8000C61
:1004C00048F60F7108400E490978114A02EB810184
:1004D000C1F8000C0A490978491E0F4A52F8210058
:1004E000804708484430006880B20449088000F41E
:1004F000004000287FF4D2AE00BF30E7200000208B
:1005000034010020005C0040480100204A01002026
:1005100000500040480000202C0000200B4A02EB55
:100520008001D1F8001C01F4804171B102EB80011F
:10053000D1F8001C48F68F7211404CF28002114332
:10054000024B03EB8002C2F8001C704700500040D1
:100550000B4A02EB8001D1F8001C01F0400171B19F
:1005600002EB8001D1F8001C48F68F72114048F26E
:10057000C0021143024B03EB8002C2F8001C70471B
:1005800000500040084A02EB8001D1F8001C48F6F8
:100590008F62114048F280021143034B03EB80024B
:1005A000C2F8001C70470000005000402DE9F047E1
:1005B0002848006800F110052E8826480068077A50
:1005C000D6B9042F18D12448007801280FD1002172
:1005D0002248006880B2801C214A42F81010302066
:1005E0002049088000BF00201B49087003E007274E
:1005F00010201C49088027E0AC88A64201D80420BE
:1006000000E002200746B44200D93446A0B2A968EF
:1006100088478046002000F0FDF98146A2B2494695
:10062000404601F0E1FBA1B2002000F0CFFC288899
:10063000001B288068882044688030200949088091
:1006400000020949088000BF024909680F72BDE82D
:10065000F08700003801002030010020505C00408D
:10066000006000404A010020480100202DE9F041CF
:100670003048006800F110042688A068C0B1BEB1FF
:10068000A588B54200D93546A8B2A1688847074673
:100690002088401B2080608828446080002000F073
:1006A000A9F98046AAB24146384600F003FB00BFD4
:1006B000208850B14FF440501F490880002108465F
:1006C00000F084FC30201D4908802088A1888842E1
:1006D00004DB032017490968087228E020880028F5
:1006E00004DD052013490968087220E02088F0B96C
:1006F000062010490968087211490968886880470E
:100700000C480068007A082806D140020A4908808F
:1007100010200A4908800AE000210A48006880B2D7
:10072000801C094A42F81010302004490880BDE8B6
:10073000F081000038010020480100204A0100201B
:100740003C010020505C0040006000402DE9F84F63
:100750009B48006845780027BA46062D1BD198486B
:100760000068007800F07F00002813D194490968E0
:100770008878012803D193490968CF690AE00228E3
:1007800003D1904909680F6A04E0032802D18D491A
:1007900009684F6A94E0002D64D189480068408858
:1007A00000285FD186480068C08802285AD1844852
:1007B00000680079002855D181480068007800F071
:1007C0007F0028B97E480068808808B97E4F77E0AE
:1007D0007B480068007800F07F00012810D178493C
:1007E00009684879774909688A6900219047002893
:1007F00066D173480068807A002861D0724F5FE04C
:100800006F480068007800F07F00022858D16C48DB
:100810000068407900F00F0669480068407900F0F0
:10082000700967480068407900F0800038B1674976
:1008300001EB8600D0F8000C00F0300806E06349B8
:1008400001EB8600D0F8000C00F4405860480078B6
:10085000B04235D9B9F1000F32D1B8F1000F2FD025
:10086000594F2DE0082D07D155480068007800F059
:100870007F0028BB574F23E00A2D21D15048006844
:10088000007800F07F0001281AD14D480068807A76
:10089000B0B14B480068408890B949480068007979
:1008A00070B947480068C088012809D144490968DF
:1008B0004879444909688A690021904700B9464F40
:1008C00057B13F480068A0F812A03D480068876112
:1008D0000020B84700240FE0394A12685078394A9E
:1008E0001268116988470446032C05D10920344950
:1008F00009680872BDE8F88F31480068008A4FF631
:10090000FF71884204D109202D4909680872F1E776
:10091000022C03D02A480068008A20B90820284900
:1009200009680872E6E726480068007800F0800051
:10093000E0B323480068C088009021480068008A1E
:100940000099884204D91E4900980968088223E06A
:100950001B480068008A1A490968C98888421BDA5E
:1009600017480068008A1749096891F82C108842D6
:1009700003DA0020194908700EE011480068008A67
:100980001049096891F82C1090FBF1F201FB12005C
:1009900010B90120114908700A48006890F82C101D
:1009A000074800688182FFF701FE07E0FFE70320A8
:1009B00003490968087200030949088000BF99E7E4
:1009C000380100203C010020911400080050004034
:1009D000680000201514000865140008300100208C
:1009E000480100207047000001200149087070474D
:1009F0000000002001460548006880B200EBC100FD
:100A0000001D034A32F8100080B27047505C00406D
:100A10000060004001460548006880B200EBC1005C
:100A2000034A32F8100080B270470000505C00406A
:100A30000060004070B50A480468001D0568001D8C
:100A40000668344454B108220649204600F046F8AE
:100A5000042204491031284600F040F870BD00001F
:100A6000E8F7FF1F0500002000BFFEE710B518489B
:100A70000068047A022C01D0042C05D1FFF796FD02
:100A800013480068047A1CE0062C19D1104800684D
:100A9000407805280ED10E480068007800F07F00ED
:100AA00040B90B490968C87800F0E6F909490968B6
:100AB000086A80470849096888688047082400E078
:100AC0000824034909680C7200F00AF910BD0000FF
:100AD00038010020440100203C01002030B50B46C5
:100AE000002100BF16E00A24B4EB107F05D93024A2
:100AF00004EB107403F8114005E0412404EB10747A
:100B00000A3C03F81140000100254C00641C1D55EF
:100B10004C1CE1B29142E6DB30BD00BFFEE77047FE
:100B20007047000070B5022648480068447847487E
:100B30000068007800F07F00002847D1092C03D11D
:100B400000F026FD064662E0052C14D13F480068FF
:100B5000C0787F280BDC3D480068807838B93B4876
:100B60000068808818B939480068807A08B108257B
:100B700068E000264BE0032C0ED134480068C078B2
:100B8000012807D131480068808818B900F024FD99
:100B900006463CE002263AE0012C38D12B4800689A
:100BA000C078012810D129480068808860B927489A
:100BB0000068407A00F0200030B10020244908602D
:100BC00000F072FB064622E0022620E01F48006883
:100BD000007800F07F00012805D10B2C17D100F020
:100BE00077FD064613E019480068007800F07F00A2
:100BF00002280BD1012C03D100F056FB064606E07B
:100C0000032C04D100F0FCFC064600E002264EB1A5
:100C1000E0B2104A1268516988470646032E01D196
:100C200009250FE00EB108250CE0062500210A4831
:100C3000006880B2801C094A42F810103020084930
:100C4000088000BF014909680D7270BD380100209D
:100C50002C0100203C010020505C0040006000405E
:100C60004A01002010B511480068047A022C01D016
:100C7000042C01D1082412E0032C01D0052C05D14D
:100C8000FFF7F4FC09480068047A08E0072C05D156
:100C900007490968C8688047082400E00824034918
:100CA00009680C7200F01CF810BD0000380100202B
:100CB0003C010020F0B5561C7510074E06EB4104B0
:100CC0002B4605E034F8047B20F8017B401C5B1EBA
:100CD000002BF7D1F0BD000000600040704700001D
:100CE00010B50D4890F82C10002000F0FFF80B48CC
:100CF0000068007A082805D14002094908801020C0
:100D00000849088005480068007A092801D10120B7
:100D100010BD0020FCE700006C000020380100201E
:100D2000480100204A01002010B5012000F0FAFE21
:100D300001240F48046000200E49088008460088FE
:100D40000B49086000BF0A48001D006800F480607D
:100D50000128F8D0002000F093F94FF4E050054945
:100D600008800846008802490860002010BD000085
:100D7000405C00404201002010B50446072C01D021
:100D80002E4804702D48007808284ED2DFE800F085
:100D900004111A202B384E4F2948006828B900F05A
:100DA00053F806202549087002E005202349087001
:100DB00041E000F049F80420204908700120204952
:100DC000086038E002201D4948700320087032E0B6
:100DD0001A484078401E194948700846407808B9BA
:100DE0000420087027E01748006883B243F010031E
:100DF000144803600520114908700A2048701AE061
:100E00000E484078401E0D4948700846407858B951
:100E10000C48006883B223F010030A4803600620E0
:100E2000087000200649086005E000BF00BF0620EA
:100E30000249087000BF00BF10BD0000050100207E
:100E400008010020405C00400549096888B220F094
:100E50000400034908604FF43F41014A11607047A4
:100E6000405C0040704700004FF6F8710140014AB5
:100E700011607047505C004030B501460F4B1A7846
:100E8000002014E003060E4C04EB9353D3F8003C0F
:100E900048F68F74234048F280042343C4B22343AE
:100EA0000406074D05EB9454C4F8003C401C9042E6
:100EB000E8D341F08003034C236030BD680000207C
:100EC000005000404C5C004010B54A105300054AE9
:100ED000126892B202EBC002121D034C44F81230A9
:100EE00010BD0000505C00400060004010B502469C
:100EF0000F48006880B200EBC200801D0D4C04EB6F
:100F000040033E290BDD481101F01F040CB9441EBB
:100F1000A0B24FF4004444EA80241C6007E048106B
:100F200001F001040CB1441CA0B284021C6010BD8D
:100F3000505C00400060004030B50E4C04EB800374
:100F4000D3F8003C4BF68F7403EA040201F480539B
:100F50000BB182F4805201F400530BB182F40052C1
:100F600042F4004343F08003024D05EB8004C4F8D3
:100F7000003C30BD0050004010B50B4B03EB80022D
:100F8000D2F8002C4BF68F7302EA030181F48051F2
:100F900081F4005141F4004242F08002024C04EB23
:100FA0008003C3F8002C10BD0050004010B54A105B
:100FB0005200044B1B689BB203EBC003024C44F885
:100FC000132010BD505C004000600040044A1268CD
:100FD00092B202EBC002921C024B43F8121070470F
:100FE000505C00400060004030B50E4C04EB8003C4
:100FF000D3F8003C48F6BF7403EA040201F0100382
:101000000BB182F0100201F020030BB182F020023C
:1010100042F4004343F08003024D05EB8004C4F822
:10102000003C30BD0050004010B50B4B03EB80027C
:10103000D2F8002C48F6BF7302EA030181F01001D8
:1010400081F0200141F4004242F08002024C04EBA6
:101050008003C3F8002C10BD0050004010B5074BB2
:1010600003EB8002D2F8002C48F68F131A400A4393
:10107000024C04EB8003C3F8002C10BD005000406C
:101080000149086070470000445C004010B500F062
:1010900001F810BD0CB500200190009034480068A4
:1010A00040F480303249086000BF3148006800F4E5
:1010B000003000900198401C0190009818B90198E8
:1010C000B0F5A06FF1D12A48006800F4003010B1EB
:1010D0000120009001E0002000900098012845D1F7
:1010E0002448006840F01000224908600846006863
:1010F00020F0030008600846006840F00200086025
:101100001B4840681A4948600846406840F420502F
:1011100048600846406840F4A0604860084640685F
:1011200020F47C1048600846406840F4E8104860AD
:101130000846006840F08070086000BF0C480068F6
:1011400000F000700028F9D00948406820F0030042
:10115000074948600846406840F00200486000BF08
:101160000348406800F00C000828F9D10CBD0000CD
:1011700000100240002002401348C06940F0805037
:101180001149C8610846806940F0040088610F4831
:10119000006820F400400D4908600846006840F4EB
:1011A0004C3008600848806940F0100006498861AA
:1011B0000748406820F480000549486008464068B8
:1011C00040F440104860704700100240040801409D
:1011D000001001400548406820F480000349486041
:1011E0000846C06940F40000C86170470010024022
:1011F00038B501242948006880B2001D284931F81B
:10120000100080B201EB4000009026480068007A90
:10121000092832D00098007822490968087000989F
:10122000401C0090009800781E490968487000989A
:10123000401C0090009800EB44000090009931F8A9
:10124000020B0091FFF71FF81649096848800098C3
:1012500000EB44000090009931F8020B0091FFF779
:1012600012F8104909688880009800EB440000904B
:10127000009800880B490968C8800120094909685D
:10128000087208480068C08810B9FFF74BFC01E0FD
:10129000FFF75CFAFFF724FD38BD0000505C00400A
:1012A00000600040380100202DE9F04754480068F4
:1012B000007800F07F08B8F1000F0AD150480068AC
:1012C000407A00F0DF004E49096848720020BDE80E
:1012D000F087B8F1020F7CD149480068408818B9FE
:1012E00047480068007908B10220F0E7DFF8149160
:1012F00043480068477927F080052C46404800683D
:10130000407900F0800038B13F4901EB8400D0F80B
:10131000000C00F0300606E03B4901EB8400D0F8F9
:10132000000C00F4405699F80000A84204D91EB100
:1013300033480068807A08B90220C8E707F08000C7
:1013400080B1314901EB8400D0F8000C00F030008E
:1013500010284BD1E0B2FFF7FBF8E0B23021FFF7E5
:1013600043FE43E0284901EB8400D0F8000C00F470
:101370004050B0F5805F39D1E4B9244A92F82C107E
:10138000E0B2FFF7B3FD204A02EB8401D1F8001C64
:101390004BF68F7201EA020080F4805080F4005016
:1013A00040F4004141F08001174B03EB8402C2F886
:1013B000001C1BE0E0B2FFF7B1F8134A02EB840116
:1013C000D1F8001C4BF68F7201EA020080F48050C5
:1013D00000E011E080F4005040F4004141F0800151
:1013E000094B03EB8402C2F8001C00BF08490968DE
:1013F0004869804700206AE700BF022067E70000D5
:101400003801002068000020005000406C000020DF
:101410004401002010B504462CB901200649096892
:101420000882002010BD0549096808688047024805
:1014300000680A30F6E7000038010020440100206F
:1014400010B5024606480068438A32B98888C01A37
:10145000034C24682082002010BD08681844FBE774
:101460003801002010B504462CB90120064909684E
:101470000882002010BD0549096888688047024835
:1014800000680C30F6E7000038010020440100201D
:1014900010B504462CB90220394909680882002099
:1014A00010BD00203749088035480068007800F0FA
:1014B0007F0018BB32490968487A00F0200131B139
:1014C0003049097841F002012E4A117005E02D499A
:1014D000097801F0FD012B4A117000F0400131B193
:1014E0002849097841F00101264A117005E0254993
:1014F000097801F0FE01234A11703AE020480068A3
:10150000007800F07F00012801D11E48C8E71C4880
:101510000068007800F07F00022828D1184A12687D
:10152000517901F00F0001F080027AB1164B03EB04
:101530008002D2F8002C02F03002102A16D1114A93
:10154000127842F001020F4B1A700FE00E4B03EBC2
:101550008002D2F8002C02F44052B2F5805F05D12F
:10156000084A127842F00102064B1A7001E000208E
:1015700096E70649096808698047024890E7000035
:1015800038010020280100200050004044010020C4
:1015900010B50E480068C0780D494978884213DCC0
:1015A0000A480068807878B908480068808858B987
:1015B00006480068C07805490968887205490968C5
:1015C00048688047002010BD0220FCE73801002059
:1015D000680000204401002010B507480068407AE8
:1015E00040F0200004490968487204490968C86944
:1015F0008047002010BD0000380100204401002079
:101600002DE9F0412E480068467926F080073C46D7
:101610002B480068407900F0800038B1294901EB7F
:101620008400D0F8000C00F0300506E0254901EBFD
:101630008400D0F8000C00F4405523480078A04204
:1016400008D91F480068408820B91DB11C480068AF
:10165000807A10B90220BDE8F08106F08000A0B1C8
:10166000184A02EB8401D1F8001C48F6BF7201EA67
:10167000020080F0100040F4004141F08001114B65
:1016800003EB8402C2F8001C14E00E4A02EB840152
:10169000D1F8001C4BF68F7201EA020080F48050F2
:1016A00040F4004141F08001064B03EB8402C2F894
:1016B000001C00BF05490968886980470020CAE707
:1016C0003801002000500040680000204401002044
:1016D00010B5174B1B68D978154B1B685879154BFB
:1016E0001B689A699047044611480068807AE8B1FF
:1016F0003CB90F480068007918B90D480068807837
:1017000008B1022010BD8CB90B490968C868804730
:1017100007480068407906490968C87204480068AB
:10172000C0780349096808730020EBE70220E9E765
:10173000380100203C0100204401002010B50021A8
:10174000204A126890B200BF09E01F4B03EB8102F0
:10175000D2F8002C92B21D4B43F82120491C0829D5
:10176000F3D340F48060174A106040F0010010602D
:1017700020F00100106000BF124A121D126802F42E
:101780008062002AF8D04FF6FF320E4B1B1D1A6004
:10179000002109E00D4A52F8212092B20A4C04EBD4
:1017A0008103C3F8002C491C0829F3D340F008003A
:1017B000044A1060126890B240F00400014A1060C0
:1017C00010BD0000405C0040005000404C01002073
:1017D0007047000010B51348006840F0010011493F
:1017E000086008464068104908400E4948600846AD
:1017F00000680E4908400B4908600846006820F45C
:10180000802008600846406820F4FE0048604FF4DD
:101810001F008860FFF73AFC4FF000600449086041
:1018200010BD0000001002400000FFF8FFFFF6FEB0
:1018300008ED00E007480078052806D00548007844
:10184000401C0449087004207047002001490870BA
:1018500000BFF9E70200002070B504460025062C01
:1018600018D118480068007800F07F00012811D1D5
:1018700014480068407968B91248006880782228C6
:1018800001D1114D10E00F480068807821280BD15C
:101890000E4D09E00B480068007800F07F00212819
:1018A00002D1032C00D10A4D0DB9022070BD0548AC
:1018B0000068856100210348006841820020A84734
:1018C0000020F3E7380100202D190008FD1800085A
:1018D0001119000810B5044602492046FFF7B0FD73
:1018E00010BD0000C800002010B504460249204683
:1018F000FFF7A6FD10BD0000C000002010B5044693
:1019000002492046FFF79CFD10BD0000D8000020D2
:10191000014629B90120034A12681082002070474D
:101920000148FCE7380100206400002010B504469F
:1019300002492046FFF784FD10BD0000D0000020C2
:1019400070B5054606480068C478042C01DB002009
:1019500070BD044800EBC4012846FFF771FDF7E7AE
:1019600038010020E00000200246002901DD0220AD
:101970007047002A01DD0220FAE70020F8E70000A6
:1019800000B5024606480068007800F07F00212874
:1019900004D10B2A02D100F09BF800BD0220FCE725
:1019A0003801002010B500202349096888722249B7
:1019B0000968C8722148C0791F4909684872002027
:1019C000FFF752FA4FF400710020FFF747FB102198
:1019D0000020FFF709FB18210020FFF775FA5821B6
:1019E0000020FFF7E3FA0020FEF7CCFD144890F842
:1019F0002C100020FFF77AFA0020FFF7BDFA4FF411
:101A0000C0610120FFF72AFB4FF480710120FFF72E
:101A1000CDFA04210120FFF7D9FA00210120FFF7B8
:101A20008BFA20210120FFF7DFFA0020FFF724FACC
:101A300001200449086010BD38010020562100082B
:101A40006C00002000010020F8B506460020009040
:101A500000240025022E0FD0032E04D0042E05D022
:101A6000052E0CD105E0601F44B209E0601D44B2B0
:101A700006E0681F45B203E0681D45B200E0F8BD0E
:101A800000BFE0B28DF80100E8B28DF8020000203E
:101A90000549087004226946812000F08BF9012075
:101AA000FFF7C2FA00BFEAE7000000200348817A8E
:101AB00011B10521024A1160704700006C0100203D
:101AC0000001002004200149086070470001002047
:101AD00003480068C1780348016000207047000097
:101AE00038010020640000207047704710B5FEF7F1
:101AF000A1FF0020054909688872FFF715F900F079
:101B000047F900200249086010BD0000380100209C
:101B1000000100204FF48020014908607047000058
:101B20001404014020B14FF00051044A116103E058
:101B30004FF40051014A116170470000001001404C
:101B400010B508480849086002200968087207486B
:101B50000749086007480849086005490968086896
:101B6000804710BD6C010020380100206C0000206F
:101B70003C0100209C0000204401002010B51420EE
:101B8000012181404209920002F1E022C2F80011D5
:101B900000BF0021002807DA0A07140E054A00F0EA
:101BA0000F031B1FD45403E00A07130E024A1354F9
:101BB00000BF10BD18ED00E000E400E010B588B0F3
:101BC000002468480068684908800846008800F4D6
:101BD000004066490988084008B1FEF75BFB62488F
:101BE000008800F4806061490988084030B14FF6F0
:101BF000FF305C4908605E49486880475A48008861
:101C000000F4005059490988084018B14DF6FF709A
:101C1000544908605448008800F4805053490988AA
:101C2000084030B14EF6FF704E4908600020FFF7C3
:101C3000A3F84D48008800F400604C49098808402A
:101C400060B14C48007810B1FFF778FD02E0022047
:101C5000FFF792F84FF2FF7042490860424800884F
:101C600000F4007041490988084040B14FF6FF5028
:101C70003C49086040480078401C3F4908703A4899
:101C8000008800F48070394909880840002866D02F
:101C90004FF6FF6033490860081D006800F40040FB
:101CA000002856D035480068401C34490860084672
:101CB0000068032850D92B48001F006800F0080076
:101CC000002849D12748001F006880B22C490860CD
:101CD000002408E02B4901EB8400D0F8000C80B20E
:101CE0004DF82400641C082CF4D32548006840F00B
:101CF0000100234908600846006880B21949091F9D
:101D000008601F48006820F001001D49086008466F
:101D1000006880B21349091F086000BF11480068BD
:101D200000F480600028F9D04FF6FF300D490860BC
:101D3000002408E05DF8240080B2124A02EB84011E
:101D4000C1F8000C641C082CF4D300200B49086077
:101D500002E00020094908600720FFF70DF808B0ED
:101D600010BD0000445C0040200000204201002023
:101D70006C0000200401002022000020240000202C
:101D8000280000200050004010B5FFF717FF10BDDD
:101D90000020064908604FF43F4005490880084686
:101DA00000880249091F086000207047445C004019
:101DB000420100202DE9F04104460E46154604F08C
:101DC0007F00FEF727FE0746AAB23946304600F0EC
:101DD0000BF8A9B204F07F00FFF7F8F80020BDE887
:101DE000F08100BFFEE70000F0B5144604F1010CDD
:101DF0004FEA6C07DFF824C00CEB41033D460AE0D4
:101E00000678401C90F800C046EA0C2223F8022B0A
:101E10009B1C401C6D1E002DF2D1F0BD00600040E7
:101E20002648806940F0040024498861084680699A
:101E300040F4007088612248006820F0C00020490A
:101E400008600846006820F03000086000201D4946
:101E500008601C49283108601A48001D006840F0DD
:101E600004001849091D086000BF1648001D0068DD
:101E700000F004000028F8D04FF460201149091D3B
:101E800008600846006840F4801008600846006852
:101E900040F00200086001200A493031086009481A
:101EA000001D006840F001000649091D0860084651
:101EB000006840F480000860704700000010024095
:101EC00000080140042401400F4909880F4A11808D
:101ED000121D108000210D4A121F118001210B4A92
:101EE000283A118000BF09491839098801F0010119
:101EF0000029F8D005491839098821F00101034A61
:101F0000183A1180704700000C010020282C014075
:101F10000A4800684FF47A71B0FBF1F00849086094
:101F2000064800680749B0FBF1F007490860074818
:101F3000806940F400600549886170471401002001
:101F40000C01002040420F00100100200010024050
:101F50000848806940F010000649886106484068DA
:101F600020F44000044948600846406840F44010AE
:101F700048607047001002400010014000F032F845
:101F8000FFF7FAF8FFF7FAFDFFF724F9FFF7D8FD9E
:101F9000FFF7BEFFFFF7DCFFFFF742FF00F080F81E
:101FA00018E00D480068052814D1FFF743FC38B14C
:101FB0000A48007820B1FFF73DFC0446FFF744FDD6
:101FC0000748C06880F400500549C8604FF47A7033
:101FD000FFF77AFFE5E70000000100200000002085
:101FE000001001402C48006840F480302A49086005
:101FF00000BF2948006800F400300028F9D0132001
:1020000026490860244840682349486008464068DB
:1020100040F4A06048600846406840F420504860A2
:102020000846406820F4701048600846406820F474
:10203000803048600846406820F400304860084618
:10204000406840F480304860084640684860084670
:10205000406840F4E01048600846006840F0807036
:10206000086000BF0C48006800F000700028F9D03C
:102070000948406820F00300074948600846406866
:1020800040F00200486000BF0348406800F00C00C8
:102090000828F9D1704700000010024000200240DB
:1020A0002548806940F0040023498861084680691A
:1020B00040F0080088612148006820F040401F4936
:1020C00008600846006840F08040086008460068E4
:1020D00040F0405008601A48006820F44020184939
:1020E00008600846006840F48020086008460068E0
:1020F00040F440300860081D006820F44060091D6D
:1021000008600846006840F480600860084600687F
:1021100040F4407008600846006820F440400860C1
:102120000846006840F4804008600846006840F4B3
:102130004050086070470000001002400408014051
:10214000000C0140120100020000004083041057FF
:1021500000020102030109022200010100E032092C
:102160000400000103010200092100010001224ACC
:10217000000705810304002005010902A1010901EE
:10218000A100050919012903150025019503750111
:102190008102950175058101050109300931093870
:1021A0001581257F750895038106C0093C05FF0947
:1021B000011500250175019502B12275069501B141
:1021C00001C0040309042603530054004D006900B4
:1021D000630072006F0065006C00650063007400AE
:1021E00072006F006E006900630073001E034E00F2
:1021F00049004B004F004C00200054006F00750058
:102200006300680050006100640000002C22000898
:10221000000000204C01000028010008B422000842
:102220004C0100209C060000840100082201141AC1
:10223000034E1249124B124F021E4C13E9090C3087
:1022400008210B04411A026913ED1A1408A5191B81
:1022500008E9081AEB041359181B0881102A69149D
:10226000190C1AD5041A410C413240293C1AAD28E8
:102270000916581AC51C1344213308121A5608327D
:10228000221A7808324A1A680832091AC208320437
:102290001AC60832261AEC08321E220373201A19B5
:1022A0009BE12BA24A33491C3E02030406074B0163
:0422B0002100000009
:04000005080001C925
:00000001FF
